:100000000C94D8000C94F5000C94F5000C94F500B9
:100010000C9464070C94F5000C94F5000C94F50016
:100020000C94F5000C94E7070C94F5000C94F50083
:100030000C94F5000C94F5000C94F5000C94F5006C
:100040000C9429070C94F5000C94F5000C94F50021
:100050000C94F50008000000BE922449123EABAAA1
:10006000AA2ABECDCCCC4C3E00000080BEABAAAAD2
:10007000AA3E00000000BF000000803F000000001A
:1000800000084178D3BB4387D1133D190E3CC3BD53
:100090004282AD2B3E68EC8276BED98FE1A93E4C00
:1000A00080EFFFBE01C4FF7F3F0000000000F700AB
:1000B000F8003D018201CB01EA04EF0660060D065F
:1000C00014023302520270020601050201020253B9
:1000D0006C6F77004661737400426C696E6B204CE4
:1000E0004544003C3C2073686966745F4C656674E7
:1000F0000073686966745F5269676874203E3E00E9
:100100007368696674204C454400746865726D6F4D
:100110005F616374696F6E004E54435F53656E7325
:100120006F72006D6F746F725F72756E203E3E204D
:1001300000736F66745F7374617274203E3E2000BA
:10014000424C44432076322E31006C696E655F73F9
:1001500074617274003C3C207475726E5F6C6566ED
:1001600074007475726E5F7269676874203E3E0039
:10017000746F6F6C735F646F776E00746F6F6C7306
:100180005F757000515F4C494E452076332E31002B
:10019000416C6C5F696E206F6E652076312E320087
:1001A0002020202057454C434F4D45202020200043
:1001B00011241FBECFE5D4E0DEBFCDBF10E0A0E626
:1001C000B0E0EAECF8E102C005900D92A63DB1075F
:1001D000D9F721E0A6EDB0E001C01D92A731B2072A
:1001E000E1F70E9448090C94630C0C9400000895F8
:1001F000B49942C079E068E05CE044E036E022E097
:1002000093E081E075BBE3ECF9E03197F1F700C0D2
:10021000000065BBE3ECF9E03197F1F700C00000A6
:1002200055BBE3ECF9E03197F1F700C0000045BBA6
:10023000E3ECF9E03197F1F700C0000035BBE3ECE7
:10024000F9E03197F1F700C0000025BBE3ECF9E0DD
:100250003197F1F700C0000095BBE3ECF9E031976E
:10026000F1F700C0000085BBE3ECF9E03197F1F74E
:1002700000C00000B49BC6CF0895B49942C071E09D
:1002800063E052E046E034E02CE098E089E075BBA2
:10029000E3ECF9E03197F1F700C0000065BBE3EC57
:1002A000F9E03197F1F700C0000055BBE3ECF9E04D
:1002B0003197F1F700C0000045BBE3ECF9E031975E
:1002C000F1F700C0000035BBE3ECF9E03197F1F73E
:1002D00000C0000025BBE3ECF9E03197F1F700C066
:1002E000000095BBE3ECF9E03197F1F700C00000A6
:1002F00085BBE3ECF9E03197F1F700C00000B49B57
:10030000C6CF0895B49946C0B69B44C070E160E37F
:1003100050E240E630E420EC90E880E975BBE3EC85
:10032000F9E03197F1F700C0000065BBE3ECF9E0BC
:100330003197F1F700C0000055BBE3ECF9E03197CD
:10034000F1F700C0000045BBE3ECF9E03197F1F7AD
:1003500000C0000035BBE3ECF9E03197F1F700C0D5
:10036000000025BBE3ECF9E03197F1F700C0000095
:1003700095BBE3ECF9E03197F1F700C0000085BBD5
:10038000E3ECF9E03197F1F700C00000B49902C046
:10039000B699C4CF0895B49946C0B79B44C070E9DC
:1003A00060E850EC40E430E620E290E380E175BB89
:1003B000E3ECF9E03197F1F700C0000065BBE3EC36
:1003C000F9E03197F1F700C0000055BBE3ECF9E02C
:1003D0003197F1F700C0000045BBE3ECF9E031973D
:1003E000F1F700C0000035BBE3ECF9E03197F1F71D
:1003F00000C0000025BBE3ECF9E03197F1F700C045
:10040000000095BBE3ECF9E03197F1F700C0000084
:1004100085BBE3ECF9E03197F1F700C00000B49937
:1004200002C0B799C4CF089540E850E017C080E0FB
:1004300090E09A01082E02C0359527950A94E2F7BC
:1004400025BB2FE73AE166E0215030406040E1F7FC
:1004500000C0000001968830910559F7809188000E
:100460008111E5CF089541E050E017C080E090E0B1
:100470009A01082E02C0220F331F0A94E2F725BB0F
:100480002FE73AE166E0215030406040E1F700C0DC
:10049000000001968830910559F7809188008111FC
:1004A000E5CF0895809188008823C9F09FEF95BB20
:1004B0002FE73AE186E0215030408040E1F700C06C
:1004C000000015BA2FE73AE186E021503040804025
:1004D000E1F700C00000809188008111E8CF089505
:1004E00080918800882359F19FEF95BB2FE73AE16F
:1004F00086E0215030408040E1F700C000002FE747
:100500003AE186E0215030408040E1F700C0000031
:1005100015BA2FE73AE186E0215030408040E1F7FC
:1005200000C000002FE73AE186E0215030408040D3
:10053000E1F700C00000809188008111D6CF0895B6
:100540001ABA8FEF8BBB17BA88BB84BB15BA81BBB5
:1005500012BA0895969A2FE78AE196E021508040DA
:100560009040E1F700C0000096982FE78AE196E0FE
:10057000215080409040E1F700C00000089584EFD2
:1005800091E0979AE3EFF1E03197F1F700C00000B6
:100590009798E3EFF1E03197F1F700C00000019781
:1005A00081F708959498959AE3ECF9E03197F1F783
:1005B00000C00000806282BB83EC99E00197F1F7F4
:1005C00000C000009598E3ECF9E03197F1F700C026
:1005D0000000089512BA8FE493EC0197F1F700C080
:1005E000000082E00E94D20282E00E94D20288E0F3
:1005F0000E94D20280E00E94D2028CE00E94D202CD
:1006000080E00E94D20286E00E94D2020895949A6D
:10061000959AE3ECF9E03197F1F700C00000982FCC
:1006200092959F70906392BBE3ECF9E03197F1F7FC
:1006300000C000009598E3ECF9E03197F1F700C0B5
:100640000000949A959AE3ECF9E03197F1F700C035
:1006500000008F70806382BB83EC99E00197F1F713
:1006600000C000009598E3ECF9E03197F1F700C085
:1006700000000895CF93DF93EC018881882331F047
:1006800021960E94070389918111FBCFDF91CF91C1
:10069000089580E00E94D20281E00E94D202089573
:1006A00083E00E94D20283ED90E30197F1F700C04E
:1006B000000083E00E94D2028BE69BE60197F1F7EF
:1006C00000C0000083E00E94D2020895CF93C62F9D
:1006D000813059F480E8860F82958F700E94D20293
:1006E0008C2F8F700E94D2020CC0823051F480ECAB
:1006F000860F82958F700E94D2028C2F8F700E947D
:10070000D202CF910895CF93DF93CDB7DEB7619733
:100710000FB6F894DEBF0FBECDBF898B89894AE042
:1007200050E0BE016F5F7F4F90E00E94230CCE012E
:1007300001960E943A0361960FB6F894DEBF0FBE91
:10074000CDBFDF91CF9108950F931F93CF938C016D
:10075000862F642F0E946603C801F801249122238A
:1007600069F0C0E0FC0184910E940703CF5FC801DB
:100770008C0F911DFC0124912111F4CFCF911F9179
:100780000F9108950E94BF020E94490361E082E038
:100790000E94660389E890E00E943A0384E690E0B4
:1007A000F9E0E8E07CE064E056E042E033E021E09C
:1007B000F5BBA3ECB9E01197F1F700C00000E5BB71
:1007C000A3ECB9E01197F1F700C0000075BBA3ECF2
:1007D000B9E01197F1F700C0000065BBA3ECB9E0E8
:1007E0001197F1F700C0000055BBA3ECB9E01197D9
:1007F000F1F700C0000045BBA3ECB9E01197F1F799
:1008000000C0000035BBA3ECB9E01197F1F700C0C0
:10081000000025BBA3ECB9E01197F1F700C0000080
:10082000019731F608950E94BF020E94490361E0DA
:1008300082E00E94660381E990E00E943A0384E628
:1008400090E0F1E0E3E072E066E054E04CE038E094
:1008500029E0F5BBA3ECB9E01197F1F700C0000067
:10086000E5BBA3ECB9E01197F1F700C0000075BB40
:10087000A3ECB9E01197F1F700C0000065BBA3EC51
:10088000B9E01197F1F700C0000055BBA3ECB9E047
:100890001197F1F700C0000045BBA3ECB9E0119738
:1008A000F1F700C0000035BBA3ECB9E01197F1F7F8
:1008B00000C0000025BBA3ECB9E01197F1F700C020
:1008C0000000019731F6089580E185BB83EC99E043
:1008D0000197F1F700C0000080E385BB83EC99E04D
:1008E0000197F1F700C0000080E285BB83EC99E03E
:1008F0000197F1F700C0000080E685BB83EC99E02A
:100900000197F1F700C0000080E485BB83EC99E01B
:100910000197F1F700C0000080EC85BB83EC99E003
:100920000197F1F700C0000080E885BB83EC99E0F7
:100930000197F1F700C0000080E985BB83EC99E0E6
:100940000197F1F700C00000089580E985BB83ECB2
:1009500099E00197F1F700C0000080E885BB83ECC7
:1009600099E00197F1F700C0000080EC85BB83ECB3
:1009700099E00197F1F700C0000080E485BB83ECAB
:1009800099E00197F1F700C0000080E685BB83EC99
:1009900099E00197F1F700C0000080E285BB83EC8D
:1009A00099E00197F1F700C0000080E385BB83EC7C
:1009B00099E00197F1F700C0000080E185BB83EC6E
:1009C00099E00197F1F700C00000089515BA0E9460
:1009D000AA0208954DC0B69B49C0969A61E081E095
:1009E0000E9466038BE990E00E943A0361E082E096
:1009F0000E9466038BEA90E00E943A0304C00E94C2
:100A00006404B59B02C0B699FACFB69931C09698E6
:100A10000E94E60487EA91E60197F1F700C0000022
:100A20000E94C20361E081E00E9466038BE990E0CE
:100A30000E943A0361E082E00E94660389EB90E045
:100A40000E943A0304C00E94A504B59B02C0B79956
:100A5000FACFB7990DC00E94E60487EA91E60197A4
:100A6000F1F700C000000E94130402C00E94E604D7
:100A700080918800882311F0B599ADCF0E94E604DB
:100A8000089597B18770982B97B93E9A86B1836085
:100A900086B9379A369A349BFECF349A84B195B191
:100AA00008950F931F93CF938C010E94410590935B
:100AB000120180931101C0E1C8010E9441052091FB
:100AC000110130911201820F931F909312018093B4
:100AD0001101C15089F7929582958F7089279F7077
:100AE00089279093120180931101CF911F910F914B
:100AF00008958F929F92AF92BF92CF92DF92EF9222
:100B0000FF92BC0180E090E00E94A30A2FE035E84C
:100B100043E950E40E94810B20E030EC4FE754E4BD
:100B20000E94020A6B017C0160931301709314010F
:100B3000809315019093160120E030E543EC57E4D3
:100B40000E94810B4B015C01A701960163E373E3F3
:100B500083E590E40E9495099B01AC01C501B401B5
:100B60000E94020A6093EF007093F0008093F100FE
:100B70009093F20020E030E543EC57E40E94020A33
:100B80000E94390B20E030EE46E755E40E94020A4D
:100B90002FE03FEC4BE55BE30E9496099B01AC0123
:100BA00060E070E080E89FE30E94020A6093000129
:100BB00070930101809302019093030123E333E9D1
:100BC00048E853E40E9495096B017C0160930D0194
:100BD00070930E0180930F019093100126E636E684
:100BE00046EE5FE30E94810B20E030E040E052E4FB
:100BF0000E9496096093E8007093E9008093EA00F0
:100C00009093EB00C701B601FF90EF90DF90CF907B
:100C1000BF90AF909F908F90089584E090E00E94E5
:100C200051059093DC008093DB000E9479050E94BF
:100C3000740A7093E5006093E40061E082E00E9432
:100C4000660387EC90E00E943A038091E4000E94E2
:100C5000830381ED90E00E943A0317C015BA0E9409
:100C6000BF02969A84E090E00E9451059093DC00C8
:100C70008093DB000E9479050E94740A7093E5005E
:100C80006093E4006233710558F02091E4003091E4
:100C9000E500809186009091870082179307F0F21B
:100CA0009698089512BE85E083BF89B7816089BF99
:100CB000089514BC86E085BD89B7806489BF089516
:100CC0000E94590615BA379880B7886080BF439A4A
:100CD000789413C087B18093D70088B118B837983B
:100CE00080B7886080BF8091D70087B97894439A95
:100CF00089B7806489BFB59B11C080918800882323
:100D000069F0B59B0BC02091E4003091E500809123
:100D100086009091870028173907E0F215BA0895E8
:100D20009091D600923041F128F4992351F09130FE
:100D3000B1F008959430D9F158F1953009F444C0D8
:100D40000895459B03C0882309F448C089E085BB0A
:100D500082E087B981E08093D60014BC089545995C
:100D600002C08823D9F181E285BB81E087B982E0A6
:100D70008093D60014BC0895459B02C0882371F16E
:100D800084E285BB17B883E08093D60014BC089535
:100D9000459902C0882311F186E085BB82E087B9BE
:100DA00084E08093D6001DBC1CBC14BC0895459BF8
:100DB00002C0882399F082E185BB81E087B985E094
:100DC0008093D60014BC0895459902C0882331F061
:100DD00088E185BB17B81092D60014BC08951F9304
:100DE000CF93DF93B49B28C02EC080E090E022E434
:100DF0002A95F1F700C001968C179D07C1F781E095
:100E00000E9490068091D6008F5F8093D6009091CB
:100E1000D600919F812D112486958695282F220F2B
:100E2000820F880F981B9093D6006497C436D10523
:100E300051F0B49B04C007C0C8E9D8E01BEA1C16F7
:100E40001D069CF2DCCFB49915BADF91CF911F91AA
:100E500008951F920F920FB60F9211242F933F9374
:100E60004F935F936F937F938F939F93AF93BF93B2
:100E7000EF93FF938091D8008F5F8093D80080918B
:100E8000D800893C18F088EC8093D8008091D80075
:100E9000883C19F480E00E94900681E090E09093F5
:100EA000DA008093D900FF91EF91BF91AF919F91AC
:100EB0008F917F916F915F914F913F912F910F9003
:100EC0000FBE0F901F9018951F920F920FB60F92A2
:100ED00011242F933F934F935F936F937F938F933F
:100EE0009F93AF93BF93EF93FF9381E00E9490068F
:100EF0001092D8001092DA001092D900FF91EF9171
:100F0000BF91AF919F918F917F916F915F914F9121
:100F10003F912F910F900FBE0F901F90189515BA0B
:100F200043981DBC1CBC14BC1FBC1EBC15BC89B79F
:100F30008B7F89BF89B78F7B89BF0E94AA020895E2
:100F4000CF93DF93CDEED0E081E0888389830E9448
:100F50004903E881F0E0EE0FFF1FE858FF4F41E042
:100F600061E0808191810E94A403E981F0E0EE0FAD
:100F7000FF1FE25AFF4F41E062E0808191810E94B1
:100F8000A403EEEAF0E0859194919093060180939A
:100F90000501DF91CF910895482F50E0415051094C
:100FA000141615067CF4E0E0F0E090E020E0E75352
:100FB000FF4FE4912E0F9F5FE92FF0E0E417F50754
:100FC000B4F301C020E08FEF860F820F08951F92C7
:100FD0000F920FB60F9211242F933F934F935F936D
:100FE0006F937F938F939F93AF93BF93CF93DF9331
:100FF000EF93FF93CE994DC087E893E10197F1F706
:1010000000C000000E94BF028091ED00E8ECF0E01B
:10101000E4918E1738F4EDEEF0E08F5F808381E08D
:10102000818303C081E08093ED000E944903CDEEEF
:10103000D0E0E881F0E0EE0FFF1FE858FF4F41E0FD
:1010400061E0808191810E94A403698188810E946E
:10105000CC07E82FF0E0EE0FFF1FE05AFF4F41E012
:1010600062E0808191810E94A403698188810E944D
:10107000CC07E82FF0E0EE0FFF1FE255FF4F859100
:101080009491909306018093050110928800CE9B65
:10109000FECFCD994CC087E893E10197F1F700C0EE
:1010A00000000E94BF028091ED00813049F4E8EC1D
:1010B000F0E0E491ADEEB0E0EC9311968C9303C0B8
:1010C00081508093ED000E944903CDEED0E0E8818D
:1010D000F0E0EE0FFF1FE858FF4F41E061E0808134
:1010E00091810E94A403698188810E94CC07E82F26
:1010F000F0E0EE0FFF1FE05AFF4F41E062E0808119
:1011000091810E94A403698188810E94CC07E82F05
:10111000F0E0EE0FFF1FE255FF4F85919491909301
:1011200006018093050110928800CD9BFECFCF99D8
:101130004DC087E893E10197F1F700C000000E94DD
:10114000BF02EDEEF0E08181E081F0E0E853FF4F77
:10115000E4918E1720F48F5F8093EE0003C081E04E
:101160008093EE000E944903CDEED0E0E881F0E0EC
:10117000EE0FFF1FE858FF4F41E061E08081918151
:101180000E94A403698188810E94CC07E82FF0E0C7
:10119000EE0FFF1FE05AFF4F41E062E08081918136
:1011A0000E94A403698188810E94CC07E82FF0E0A7
:1011B000EE0FFF1FE255FF4F85919491909306012A
:1011C0008093050110928800CF9BFECFCC994DC033
:1011D00087E893E10197F1F700C000000E94BF0289
:1011E0008091EE00813051F4ADEEB0E0EC91F0E092
:1011F000E853FF4FE4911196EC9303C08150809324
:10120000EE000E944903CDEED0E0E881F0E0EE0F61
:10121000FF1FE858FF4F41E061E0808191810E940B
:10122000A403698188810E94CC07E82FF0E0EE0FCB
:10123000FF1FE05AFF4F41E062E0808191810E94F0
:10124000A403698188810E94CC07E82FF0E0EE0FAB
:10125000FF1FE255FF4F8591949190930601809373
:10126000050110928800CC9BFECFFF91EF91DF919A
:10127000CF91BF91AF919F918F917F916F915F912E
:101280004F913F912F910F900FBE0F901F90189587
:101290000E94A0020E9450030E94EA028FE493EC95
:1012A0000197F1F700C000000E9449030E94BF02AD
:1012B0000E94A0070E94520678948FEF85BB9FE39F
:1012C0002DE083E0915020408040E1F700C0000015
:1012D00015BAC1E00E94E6040E948F07C0938800FF
:1012E000B49910C087E893E10197F1F700C00000BE
:1012F0000E94BF02E0910501F09106010995B49B9F
:10130000FECFE8CFB599E6CF87E893E10197F1F7F3
:1013100000C000000E94BF020E94A0070E94E604D5
:101320000E948F07B59BFECFD5CF5058BB27AA2769
:101330000E94AD090C94F70A0E94E90A38F00E9455
:10134000F00A20F039F49F3F19F426F40C94E60AD1
:101350000EF4E095E7FB0C94E00AE92F0E94080BDD
:1013600058F3BA17620773078407950720F079F4DA
:10137000A6F50C942A0B0EF4E0950B2EBA2FA02D97
:101380000B01B90190010C01CA01A0011124FF2732
:10139000591B99F0593F50F4503E68F11A16F0402D
:1013A000A22F232F342F4427585FF3CF469537952C
:1013B0002795A795F0405395C9F77EF41F16BA0BF1
:1013C000620B730B840BBAF09150A1F0FF0FBB1F9F
:1013D000661F771F881FC2F70EC0BA0F621F731FE8
:1013E000841F48F4879577956795B795F7959E3F45
:1013F00008F0B0CF9395880F08F09927EE0F9795D6
:10140000879508950E94160A0C94F70A0E94F00A24
:1014100058F00E94E90A40F029F45F3F29F00C944B
:10142000E00A51110C942B0B0C94E60A0E94080B55
:1014300068F39923B1F3552391F3951B550BBB2703
:10144000AA2762177307840738F09F5F5F4F220F48
:10145000331F441FAA1FA9F335D00E2E3AF0E0E83F
:1014600032D091505040E695001CCAF72BD0FE2F89
:1014700029D0660F771F881FBB1F2617370748071D
:10148000AB07B0E809F0BB0B802DBF01FF279358D5
:101490005F4F3AF09E3F510578F00C94E00A0C94AF
:1014A0002B0B5F3FE4F3983ED4F3869577956795D1
:1014B000B795F7959F5FC9F7880F911D969587950A
:1014C00097F90895E1E0660F771F881FBB1F621729
:1014D00073078407BA0720F0621B730B840BBA0BE7
:1014E000EE1F88F7E09508950E94100B88F09F5733
:1014F00098F0B92F9927B751B0F0E1F0660F771F38
:10150000881F991F1AF0BA95C9F714C0B13091F02D
:101510000E942A0BB1E008950C942A0B672F782FB4
:101520008827B85F39F0B93FCCF3869577956795F2
:10153000B395D9F73EF490958095709561957F4F5E
:101540008F4F9F4F0895E89409C097FB3EF4909504
:101550008095709561957F4F8F4F9F4F9923A9F08C
:10156000F92F96E9BB279395F6958795779567951B
:10157000B795F111F8CFFAF4BB0F11F460FF1BC05F
:101580006F5F7F4F8F4F9F4F16C0882311F096E9F2
:1015900011C0772321F09EE8872F762F05C06623A0
:1015A00071F096E8862F70E060E02AF09A95660F59
:1015B000771F881FDAF7880F9695879597F9089512
:1015C00097F99F6780E870E060E008959FEF80ECF6
:1015D000089500240A941616170618060906089599
:1015E00000240A9412161306140605060895092EFF
:1015F0000394000C11F4882352F0BB0F40F4BF2B6E
:1016000011F460FF04C06F5F7F4F8F4F9F4F0895AD
:1016100057FD9058440F551F59F05F3F71F04795A3
:10162000880F97FB991F61F09F3F79F08795089588
:10163000121613061406551FF2CF4695F1DF08C0A7
:10164000161617061806991FF1CF869571056105C4
:1016500008940895E894BB2766277727CB0197F96C
:10166000089516F00C94EE0B0C94E60A68940C9412
:10167000E00A0E94100BA8F39923C1F3AEF3DF93A5
:10168000CF931F930F93FF92C92FDD2788232AF052
:101690002197660F771F881FDAF720E030E040E8D7
:1016A0005FEB9FE3883920F0803E38F021968F77FA
:1016B0000E949609E4E5F0E004C00E949609E1E882
:1016C000F0E00E94FC0B8B01BE01EC01FB2E6F577A
:1016D00071097595771F880B990B0E94A50A28E15F
:1016E00032E741E35FE30E94940BAF2D9801AE0116
:1016F000FF900F911F91CF91DF910E94AD090C9443
:10170000F70A0E94940B0C94F70A0E94E90A38F039
:101710000E94F00A20F0952311F00C94E00A0C943A
:10172000E60A11240C942B0B0E94080B70F3959F72
:10173000C1F3950F50E0551F629FF001729FBB27C8
:10174000F00DB11D639FAA27F00DB11DAA1F649F64
:101750006627B00DA11D661F829F2227B00DA11D17
:10176000621F739FB00DA11D621F839FA00D611D9D
:10177000221F749F3327A00D611D231F849F600DBE
:10178000211D822F762F6A2F11249F5750409AF0E7
:10179000F1F088234AF0EE0FFF1FBB1F661F771F73
:1017A000881F91505040A9F79E3F510580F00C943E
:1017B000E00A0C942B0B5F3FE4F3983ED4F386953C
:1017C00077956795B795F795E7959F5FC1F7FE2BDE
:1017D000880F911D9695879597F908959F3F31F051
:1017E000915020F4879577956795B795880F911D4F
:1017F0009695879597F90895DF93CF931F930F934D
:10180000FF92EF92DF927B018C01689406C0DA2E82
:10181000EF010E94940BFE01E894A591259135916A
:1018200045915591A6F3EF010E94AD09FE01970184
:10183000A801DA9469F7DF90EF90FF900F911F9164
:10184000CF91DF9108954532510520F4423010F0D8
:101850000C942E0CFB011082CB010895BB274A305B
:1018600031F4992322F4BDE2909581959F4F0C9419
:101870003A0CBB27FB015527AA27880F991FAA1FDF
:10188000A41710F0A41B83955051B9F7A05DAA339B
:1018900008F0A95DA193009779F7B111B193119266
:1018A000CB010C94530CDC01FC01672F7191772361
:1018B000E1F7329704C07C916D9370836291AE170B
:0A18C000BF07C8F30895F894FFCFA6
:1018CA0090017B017001620155014A013101230136
:1018DA000A01F100E300D400CF00A0018401400115
:1018EA0018010001D900460001746573745F5570D0
:1018FA0000746573745F446F776E0020515F4C69A2
:10190A006E6520202076332E312000466F72776173
:10191A00726420203E3E3E3E003C3C3C3C2020522D
:10192A0065766572736500746865726D6F203D2017
:06193A000020B043000094
:00000001FF
