:100000000C9457000C9474000C9474000C947400BD
:100010000C94FB020C9474000C9474000C94740007
:100020000C9474000C94D4020C9474000C9474001E
:100030000C9474000C9474000C9474000C94740070
:100040000C94CA020C9474000C9474000C94740008
:100050000C94740008000000BE922449123EABAA22
:10006000AA2ABECDCCCC4C3E00000080BEABAAAAD2
:10007000AA3E00000000BF000000803F000000001A
:1000800000084178D3BB4387D1133D190E3CC3BD53
:100090004282AD2B3E68EC8276BED98FE1A93E4C00
:1000A00080EFFFBE01C4FF7F3F000000000011246D
:1000B0001FBECFE5D4E0DEBFCDBF10E0A0E6B0E0CC
:1000C000E2E5FDE002C005900D92AE3BB107D9F725
:1000D00020E0AEEBB0E001C01D92AB3FB207E1F70C
:1000E0000E9430030C94A7060C9400001ABA8FEFFC
:1000F0008BBB97B3937F97BB98B39C6098BB97B328
:10010000936F97BB98B3947098BB84BB15BA81BBAF
:1001100012BA089592B39F70282F207F922B92BB22
:100120009098919A0000919832E43A95F1F700C0C6
:1001300022B32F7030E1839FC0011124822B82BB38
:10014000919A0000919883EF91E00197F1F700C038
:10015000000008958FEF81BB87E893E10197F1F7E5
:1001600000C0000082E00E948A0088E20E948A00AB
:100170008CE00E948A0086E00E948A0081E00E9452
:100180008A0083EF91E00197F1F700C00000089525
:1001900092B39F70282F207F922B92BB909A919AB6
:1001A0000000919832E43A95F1F700C022B32F7025
:1001B00030E1839FC0011124822B82BB919A000001
:1001C000919883EF91E00197F1F700C00000089546
:1001D000CF93DF93EC018881882331F021960E9430
:1001E000C80089918111FBCFDF91CF91089581E003
:1001F0000E948A0080E80E948A000895813031F4CC
:10020000862F8F7080680E948A000895823029F4BA
:10021000862F8F70806C0E948A000895CF93DF93A1
:10022000CDB7DEB761970FB6F894DEBF0FBECDBF76
:10023000898B89894AE050E0BE016F5F7F4F90E073
:100240000E946706CE0101960E94E80061960FB6F3
:10025000F894DEBF0FBECDBFDF91CF9108958FEF31
:1002600084BB15BAA99A2FE78AE196E02150804015
:100270009040E1F700C00000A9982FE78AE196E0DE
:10028000215080409040E1F700C0000008958FEFBA
:1002900084BB15BA24EF31E091E085B3892785BB93
:1002A000E3EFF1E03197F1F700C000002150310990
:1002B000A1F708958F929F92AF92BF92CF92DF9253
:1002C000EF92FF92BC0180E090E00E94E7042FE0F3
:1002D00035E843E950E40E94C50520E030EC4FE7E3
:1002E00054E40E9446046B017C016093F700709314
:1002F000F8008093F9009093FA0020E030E543EC99
:1003000057E40E94C5054B015C01A701960163E318
:1003100073E383E590E40E94D9039B01AC01C5011E
:10032000B4010E9446046093D3007093D40080937C
:10033000D5009093D60020E030E543EC57E40E94CE
:1003400046040E947D0520E030EE46E755E40E9419
:1003500046042FE03FEC4BE55BE30E94DA039B0190
:10036000AC0160E070E080E89FE30E944604609387
:10037000E6007093E7008093E8009093E90023E3A0
:1003800033E948E853E40E94D9036B017C01609390
:10039000F1007093F2008093F3009093F40026E64E
:1003A00036E646EE5FE30E94C50520E030E040E01F
:1003B00052E40E94DA036093CC007093CD008093E6
:1003C000CE009093CF00C701B601FF90EF90DF9071
:1003D000CF90BF90AF909F908F90089597B1877006
:1003E000982B97B93E9A86B1836086B9379A369A28
:1003F000349BFECF349A84B195B108950F931F9327
:10040000CF938C010E94EE019093F6008093F5004B
:10041000C0E1C8010E94EE012091F5003091F60084
:10042000820F931F9093F6008093F500C15089F7D7
:10043000929582958F7089279F7089279093F600F7
:100440008093F500CF911F910F91089587E090E080
:100450000E94FE019093D2008093D1000E945A0125
:100460000E94B8047093D9006093D80061E082E0E4
:100470000E94FE008BE890E00E94E8008091D80086
:100480000E940E0117C015BA0E944701A99A87E081
:1004900090E00E94FE019093D2008093D1000E94D0
:1004A0005A010E94B8047093D9006093D800623357
:1004B000710558F02091D8003091D90080916000EA
:1004C0009091610082179307F0F2A9980895909196
:1004D000BE00923051F128F4992351F09130B9F0D7
:1004E00008959430E9F170F1953009F447C008950A
:1004F000459B03C0882309F44CC080E985BB82E09A
:1005000087B981E08093BE0012BE14BC089545995E
:1005100002C08823F1F184E885BB81E087B982E0DD
:100520008093BE0012BE14BC0895459B02C0882370
:1005300081F184E285BB17B883E08093BE0012BED0
:1005400014BC0895459902C0882319F180E685BB43
:1005500082E087B984E08093BE0012BE14BC089587
:10056000459B02C08823A9F088E485BB81E087B958
:1005700085E08093BE0012BE14BC0895459902C068
:10058000882339F088E185BB17B81092BE0012BEEF
:1005900014BC08951F920F920FB60F9211240F9062
:1005A0000FBE0F901F9018951F920F920FB60F92CB
:1005B00011242F933F934F935F936F937F938F9368
:1005C0009F93AF93BF93EF93FF9381E00E946702E5
:1005D0001092C000FF91EF91BF91AF919F918F91C9
:1005E0007F916F915F914F913F912F910F900FBE2F
:1005F0000F901F9018951F920F920FB60F92112413
:100600002F933F934F935F936F937F938F939F931A
:10061000AF93BF93EF93FF938091C000883C19F490
:1006200080E00E9467028091C0008F5F8093C000CD
:100630008091C000893C18F088EC8093C000FF9145
:10064000EF91BF91AF919F918F917F916F915F914A
:100650004F913F912F910F900FBE0F901F901895C3
:100660000E9476000E94AA000E9447010E94F700A3
:1006700061E081E00E94FE0083E990E00E94E800D2
:100680002FE382E49FE0215080409040E1F700C0DA
:10069000000015BA80B7886080BF449A13BE84E01A
:1006A00083BF89B7816089BF15BC81E085BD89B7EB
:1006B000806489BF78941BEAC8E9D8E00E942602CA
:1006C000CC992FC0D093C900C093C80087EA91E6A7
:1006D0000197F1F700C0000081E00E94670280915D
:1006E000BE008F5F8093BE009091BE00919F812DD0
:1006F000112486958695282F220F820F880F981B2C
:100700009093BE008091C8009091C9004497909347
:10071000C9008093C80085369105C0F6439ACC9BEA
:10072000D1CFCB9916C087E893E10197F1F700C0CC
:1007300000008091C1009091C20021E08227909337
:10074000C2008093C1000E9447010E94F700CB9B2A
:10075000FECF8091C1009091C2000197D1F487B182
:100760008093BF0088B118B8379880B7886080BF81
:100770008091BF0087B97894439A89B7816089BF17
:1007800061E081E00E94FE0082EA90E00E94E800C1
:1007900095CF15BA439889B78E7F89BF61E081E014
:1007A0000E94FE008FEA90E00E94E8000E942F0164
:1007B00085CF5058BB27AA270E94F1030C943B0514
:1007C0000E942D0538F00E94340520F039F49F3F37
:1007D00019F426F40C942A050EF4E095E7FB0C942A
:1007E0002405E92F0E944C0558F3BA1762077307D6
:1007F0008407950720F079F4A6F50C946E050EF4A5
:10080000E0950B2EBA2FA02D0B01B90190010C0120
:10081000CA01A0011124FF27591B99F0593F50F438
:10082000503E68F11A16F040A22F232F342F442790
:10083000585FF3CF469537952795A795F040539588
:10084000C9F77EF41F16BA0B620B730B840BBAF058
:100850009150A1F0FF0FBB1F661F771F881FC2F7C3
:100860000EC0BA0F621F731F841F48F487957795D7
:100870006795B795F7959E3F08F0B0CF9395880F91
:1008800008F09927EE0F9795879508950E945A04CE
:100890000C943B050E94340558F00E942D0540F051
:1008A00029F45F3F29F00C94240551110C946F0535
:1008B0000C942A050E944C0568F39923B1F3552343
:1008C00091F3951B550BBB27AA2762177307840763
:1008D00038F09F5F5F4F220F331F441FAA1FA9F3F9
:1008E00035D00E2E3AF0E0E832D091505040E695E7
:1008F000001CCAF72BD0FE2F29D0660F771F881F48
:10090000BB1F261737074807AB07B0E809F0BB0B3A
:10091000802DBF01FF2793585F4F3AF09E3F51054E
:1009200078F00C9424050C946F055F3FE4F3983E37
:10093000D4F3869577956795B795F7959F5FC9F737
:10094000880F911D9695879597F90895E1E0660FB8
:10095000771F881FBB1F621773078407BA0720F031
:10096000621B730B840BBA0BEE1F88F7E09508959A
:100970000E94540588F09F5798F0B92F9927B751D6
:10098000B0F0E1F0660F771F881F991F1AF0BA9533
:10099000C9F714C0B13091F00E946E05B1E008951E
:1009A0000C946E05672F782F8827B85F39F0B93F10
:1009B000CCF3869577956795B395D9F73EF49095E6
:1009C0008095709561957F4F8F4F9F4F0895E89464
:1009D00009C097FB3EF490958095709561957F4F87
:1009E0008F4F9F4F9923A9F0F92F96E9BB27939535
:1009F000F695879577956795B795F111F8CFFAF445
:100A0000BB0F11F460FF1BC06F5F7F4F8F4F9F4F75
:100A100016C0882311F096E911C0772321F09EE8D3
:100A2000872F762F05C0662371F096E8862F70E039
:100A300060E02AF09A95660F771F881FDAF7880F13
:100A40009695879597F9089597F99F6780E870E0E4
:100A500060E008959FEF80EC089500240A94161634
:100A6000170618060906089500240A94121613069C
:100A7000140605060895092E0394000C11F488232A
:100A800052F0BB0F40F4BF2B11F460FF04C06F5F46
:100A90007F4F8F4F9F4F089557FD9058440F551F1C
:100AA00059F05F3F71F04795880F97FB991F61F0F0
:100AB0009F3F79F087950895121613061406551F67
:100AC000F2CF4695F1DF08C0161617061806991FD3
:100AD000F1CF86957105610508940895E894BB27C8
:100AE00066277727CB0197F9089516F00C94320604
:100AF0000C942A0568940C9424050E945405A8F3CC
:100B00009923C1F3AEF3DF93CF931F930F93FF921B
:100B1000C92FDD2788232AF02197660F771F881FAA
:100B2000DAF720E030E040E85FEB9FE3883920F01F
:100B3000803E38F021968F770E94DA03E4E5F0E0FA
:100B400004C00E94DA03E1E8F0E00E9440068B0155
:100B5000BE01EC01FB2E6F5771097595771F880B4D
:100B6000990B0E94E90428E132E741E35FE30E9428
:100B7000D805AF2D9801AE01FF900F911F91CF9135
:100B8000DF910E94F1030C943B050E94D8050C9460
:100B90003B050E942D0538F00E94340520F0952376
:100BA00011F00C9424050C942A0511240C946F0563
:100BB0000E944C0570F3959FC1F3950F50E0551FAF
:100BC000629FF001729FBB27F00DB11D639FAA27A2
:100BD000F00DB11DAA1F649F6627B00DA11D661FF1
:100BE000829F2227B00DA11D621F739FB00DA11D12
:100BF000621F839FA00D611D221F749F3327A00DCC
:100C0000611D231F849F600D211D822F762F6A2F67
:100C100011249F5750409AF0F1F088234AF0EE0FCC
:100C2000FF1FBB1F661F771F881F91505040A9F7F9
:100C30009E3F510580F00C9424050C946F055F3F96
:100C4000E4F3983ED4F3869577956795B795F79535
:100C5000E7959F5FC1F7FE2B880F911D96958795AD
:100C600097F908959F3F31F0915020F4879577953B
:100C70006795B795880F911D9695879597F9089573
:100C8000DF93CF931F930F93FF92EF92DF927B013D
:100C90008C01689406C0DA2EEF010E94D805FE018F
:100CA000E894A5912591359145915591A6F3EF01D1
:100CB0000E94F103FE019701A801DA9469F7DF9021
:100CC000EF90FF900F911F91CF91DF9108954532E2
:100CD000510520F4423010F00C947206FB01108292
:100CE000CB010895BB274A3031F4992322F4BDE2A9
:100CF000909581959F4F0C947E06BB27FB0155274D
:100D0000AA27880F991FAA1FA41710F0A41B839568
:100D10005051B9F7A05DAA3308F0A95DA1930097DF
:100D200079F7B111B1931192CB010C949706DC01C4
:100D3000FC01672F71917723E1F7329704C07C9112
:100D40006D9370836291AE17BF07C8F30895F8944E
:020D5000FFCFD3
:100D5200460020424C444320762E302E3120002083
:100D620073746F70656420212000202020202020D1
:100D72002020202020202020202000746865726D11
:100D82006F3D0020424C4443203C3C207365747507
:100D92007000206D6F746F72206973204F4E0020B7
:0E0DA2006D6F746F72206973204F464600001B
:00000001FF
