:100000000C942A000C9447000C9447000C94470071
:100010000C94A0010C9447000C9447000C944700EA
:100020000C9447000C9479010C9447000C94470001
:100030000C9447000C9447000C9447000C94470024
:100040000C946F010C9447000C9447000C944700EB
:100050000C94470011241FBECFE5D4E0DEBFCDBF16
:1000600010E0A0E6B0E0EAEFF4E002C005900D92E7
:10007000A43BB107D9F720E0A4EBB0E001C01D928A
:10008000A53CB207E1F70E94D5010C947B020C94C9
:1000900000001ABA8FEF8BBB97B3937F97BB98B3CF
:1000A0009C6098BB97B3936F97BB98B3947098BBC1
:1000B00084BB15BA81BB12BA089592B39F70282FE2
:1000C000207F922B92BB9098919A0000919832E4F5
:1000D0003A95F1F700C022B32F7030E1839FC00141
:1000E0001124822B82BB919A0000919883EF91E0BA
:1000F0000197F1F700C0000008958FEF81BB87E8FA
:1001000093E10197F1F700C0000082E00E945D00DA
:1001100088E20E945D008CE00E945D0086E00E9403
:100120005D0081E00E945D0083EF91E00197F1F7AF
:1001300000C00000089592B39F70282F207F922B5B
:1001400092BB909A919A0000919832E43A95F1F717
:1001500000C022B32F7030E1839FC0011124822B95
:1001600082BB919A0000919883EF91E00197F1F79B
:1001700000C000000895CF93DF93EC0188818823AD
:1001800031F021960E949B0089918111FBCFDF9174
:10019000CF91089581E00E945D0080E80E945D009B
:1001A0000895813031F4862F8F7080680E945D0041
:1001B0000895823029F4862F8F70806C0E945D0034
:1001C00008958FEF84BB15BAA99A2FE78AE196E0CC
:1001D000215080409040E1F700C00000A9982FE72F
:1001E0008AE196E0215080409040E1F700C0000095
:1001F00008958FEF84BB15BA24EF31E091E085B309
:10020000892785BBE3EFF1E03197F1F700C00000EB
:1002100021503109A1F708959091B400923051F125
:1002200028F4992351F09130B9F008959430E9F110
:1002300070F1953009F447C00895459B03C08823A9
:1002400009F44CC080E985BB82E087B981E08093E6
:10025000B40012BE14BC0895459902C08823F1F180
:1002600084E885BB81E087B982E08093B40012BE48
:1002700014BC0895459B02C0882381F184E285BBAC
:1002800017B883E08093B40012BE14BC089545995A
:1002900002C0882319F180E685BB82E087B984E03B
:1002A0008093B40012BE14BC0895459B02C08823FD
:1002B000A9F088E485BB81E087B985E08093B4002C
:1002C00012BE14BC0895459902C0882339F088E114
:1002D00085BB17B81092B40012BE14BC08951F92CB
:1002E0000F920FB60F9211240F900FBE0F901F9018
:1002F00018951F920F920FB60F9211242F933F93D0
:100300004F935F936F937F938F939F93AF93BF931D
:10031000EF93FF9381E00E940C011092B600FF91D1
:10032000EF91BF91AF919F918F917F916F915F916D
:100330004F913F912F910F900FBE0F901F901895E6
:100340001F920F920FB60F9211242F933F934F934A
:100350005F936F937F938F939F93AF93BF93EF932D
:10036000FF938091B600883C19F480E00E940C0154
:100370008091B6008F5F8093B6008091B600893C73
:1003800018F088EC8093B600FF91EF91BF91AF9188
:100390009F918F917F916F915F914F913F912F919D
:1003A0000F900FBE0F901F9018950E9449000E9459
:1003B0007D000E94F9000E94CA0061E081E00E9475
:1003C000D10089E890E00E94BB002FE382E49FE027
:1003D000215080409040E1F700C0000015BA80B77E
:1003E000886080BF449A13BE84E083BF89B7816070
:1003F00089BF15BC81E085BD89B7806489BF7894C9
:10040000C8E9D8E01BEA2DC0D093BB00C093BA0066
:1004100087EA91E60197F1F700C0000081E00E94B1
:100420000C018091B4008F5F8093B4009091B40070
:10043000919F812D112486958695282F220F820F5A
:10044000880F981B9093B4008091BA009091BB00E4
:1004500044979093BB008093BA0085369105C0F60F
:10046000439ACC9BD1CFCB9916C087E893E10197F3
:10047000F1F700C000008091B7009091B80021E032
:1004800082279093B8008093B7000E94F9000E94E1
:10049000CA00CB9BFECF8091B7009091B800019726
:1004A000D1F487B18093B50088B118B8379880B778
:1004B000886080BF8091B50087B97894439A89B7E6
:1004C000816089BF61E081E00E94D10088E990E00D
:1004D0000E94BB00C6CF15BA439889B78E7F89BFEB
:1004E00061E081E00E94D10085EA90E00E94BB00BB
:0A04F0000E94E100B6CFF894FFCFA0
:1004FA0020424C444320762E302E31200020737443
:10050A006F706564202120002020202020202020D8
:10051A0020202020202020200020424C4443203C40
:10052A003C20736574757000206D6F746F7220695A
:10053A0073204F4E00206D6F746F72206973204FC5
:04054A004646000021
:00000001FF
