:100000000C942A000C9447000C9447000C94470071
:100010000C9447000C9447000C9447000C94470044
:100020000C9403020C94DE010C9447000C944700DE
:100030000C9447000C9447000C9447000C94470024
:100040000C9447000C9447000C9447000C94470014
:100050000C94470011241FBECFE5D4E0DEBFCDBF16
:1000600010E0A0E6B0E0E0EBF6E002C005900D92F3
:10007000A03EB107D9F720E0A0EEB0E001C01D928C
:10008000AF3FB207E1F70E94DA020C9456030C94DA
:1000900000001ABA8FEF8BBB97B3937F97BB98B3CF
:1000A0009C6098BB97B3936F97BB98B3947098BBC1
:1000B00084BB15BA81BB12BA089592B39F70282FE2
:1000C000207F922B92BB9098919A0000919832E4F5
:1000D0003A95F1F700C022B32F7030E1839FC00141
:1000E0001124822B82BB919A0000919883EF91E0BA
:1000F0000197F1F700C0000008958FEF81BB87E8FA
:1001000093E10197F1F700C0000082E00E945D00DA
:1001100088E20E945D008CE00E945D0086E00E9403
:100120005D0081E00E945D0083EF91E00197F1F7AF
:1001300000C00000089592B39F70282F207F922B5B
:1001400092BB909A919A0000919832E43A95F1F717
:1001500000C022B32F7030E1839FC0011124822B95
:1001600082BB919A0000919883EF91E00197F1F79B
:1001700000C000000895CF93DF93EC0188818823AD
:1001800031F021960E949B0089918111FBCFDF9174
:10019000CF910895813031F4862F8F7080680E944E
:1001A0005D000895823029F4862F8F70806C0E9444
:1001B0005D000895CF93DF93CDB7DEB761970FB69B
:1001C000F894DEBF0FBECDBF898B89894AE0BE019E
:1001D0006F5F7F4F90E00E942103CE0101960E9445
:1001E000BB0061960FB6F894DEBF0FBECDBFDF91A6
:1001F000CF9108958FEF84BB15BAA99A2FEB87E2B0
:1002000099E0215080409040E1F700C00000A9989B
:100210002FEB87E299E0215080409040E1F700C049
:10022000000008958FEF84BB15BA28EE33E091E00B
:1002300085B3892785BBEDEEF2E03197F1F700C079
:10024000000021503109A1F708958091ED0081301F
:1002500031F480916000823011F480E985BB809197
:10026000ED00823031F480916000833011F484E835
:1002700085BB8091ED00833031F480916000843043
:1002800011F484E285BB8091ED00843031F48091DB
:100290006000853011F480E685BB8091ED008530EB
:1002A00031F480916000863011F488E485BB809140
:1002B000ED00863031F480916000813011F488E1E6
:1002C00085BB81E08093EC008091E8009091E9008B
:1002D000A091EA00B091EB000196A11DB11D8093A1
:1002E000E8009093E900A093EA00B093EB00089532
:1002F0008091EE008330D1F028F4813049F08230D3
:1003000071F00895853001F1C0F0863021F1089533
:1003100081E08093ED0082E080936000089582E0A8
:100320008093ED0083E080936000089583E08093E4
:10033000ED0084E080936000089584E08093ED00F8
:1003400085E080936000089585E08093ED0086E06D
:1003500080936000089586E08093ED0081E08093B3
:1003600060000895C89B04C081E08093F50002C03E
:100370001092F500C99B04C082E08093F10002C096
:100380001092F100CA9B04C084E08093F60002C082
:100390001092F6009091F5008091F100890F9091F4
:1003A000F600890F8093EE008091EE00882321F003
:1003B0008091EE00873009F415BA08951F920F92CC
:1003C0000FB60F9211248F939F93AF93BF93809199
:1003D000E4009091E500A091E600B091E70001965D
:1003E000A11DB11D8093E4009093E500A093E60069
:1003F000B093E700BF91AF919F918F910F900FBE87
:100400000F901F9018951F920F920FB60F92112404
:100410002F933F934F935F936F937F938F939F930C
:10042000AF93BF93EF93FF9313BE8091E40090913D
:10043000E500A091E600B091E70022B7BA2FA92FFE
:10044000982F8827820F911DA11DB11D880F991F1C
:10045000AA1FBB1F880F991FAA1FBB1F880F991FB8
:10046000AA1FBB1F880F991FAA1FBB1F880F991FA8
:10047000AA1FBB1F8093E0009093E100A093E200CD
:10048000B093E30061E082E00E94CA008AE890E055
:100490000E94BB008091E4009091E500A091E600ED
:1004A000B091E7000E94DA0061E082E00E94CA0099
:1004B00087E990E00E94BB008091E0009091E1000C
:1004C000A091E200B091E3000E94DA0081E890E0A0
:1004D0000E94BB001092E8001092E9001092EA001E
:1004E0001092EB001092E4001092E5001092E600EA
:1004F0001092E70012BE83B7856083BFFF91EF9132
:10050000BF91AF919F918F917F916F915F914F912B
:100510003F912F910F900FBE0F901F901895379815
:1005200080B7886080BF18B885E087B9459B04C054
:1005300081E08093F90002C01092F90061E082E04E
:100540000E94CA008EE990E00E94BB008091F900F1
:100550000E94DA0018B886E087B9459B04C081E0A4
:100560008093FC0002C01092FC0061E082E00E94D7
:10057000CA0088EA90E00E94BB008091FC000E94C3
:10058000DA0018B887E087B9459B04C081E0809302
:10059000F30002C01092F30061E082E00E94CA0002
:1005A00082EB90E00E94BB008091F3000E94DA0091
:1005B00018B808950E9449000E947D000E9412010F
:1005C0008CEB90E00E94BB00CB9914C087E893E1CC
:1005D0000197F1F700C000008091EF009091F000CA
:1005E00021E082279093F0008093EF000E94120197
:1005F000CB9BFECF8091EF009091F000019799F492
:10060000F89461E081E00E94CA0089EC90E00E94C9
:10061000BB0078940E94B2010E948F020E94780170
:100620000E942501D1CFF89461E081E00E94CA00C8
:1006300084ED90E00E94BB00789415BA0E94FA0005
:10064000C3CFBB274A3031F4992322F4BDE2909501
:1006500081959F4F0C942D03BB27FB015527AA279B
:10066000880F991FAA1FA41710F0A41B839550513F
:10067000B9F7A05DAA3308F0A95DA193009779F7B7
:10068000B111B1931192CB010C944603DC01FC0132
:10069000672F71917723E1F7329704C07C916D93B6
:1006A00070836291AE17BF07C8F30895F894FFCF27
:1006B0000120424C444320762E302E3120002073FE
:1006C000746F7065642021200020202020202020CD
:1006D000202020202020202020006379636C655F8B
:1006E00074696D65723D002052504D3D2000415FA0
:1006F0007374617475733D00425F737461747573D4
:100700003D00435F7374617475733D0020424C4437
:1007100043206D6F746F7220006D6F746F722D2D9A
:100720003E4F4E006D6F746F722D2D3E4F4646004A
:00000001FF
